{
  "contractName": "TestNFT",
  "abi": [
    {
      "inputs": [],
      "stateMutability": "nonpayable",
      "type": "constructor"
    },
    {
      "anonymous": false,
      "inputs": [
        {
          "indexed": true,
          "internalType": "address",
          "name": "owner",
          "type": "address"
        },
        {
          "indexed": true,
          "internalType": "address",
          "name": "approved",
          "type": "address"
        },
        {
          "indexed": true,
          "internalType": "uint256",
          "name": "tokenId",
          "type": "uint256"
        }
      ],
      "name": "Approval",
      "type": "event"
    },
    {
      "anonymous": false,
      "inputs": [
        {
          "indexed": true,
          "internalType": "address",
          "name": "owner",
          "type": "address"
        },
        {
          "indexed": true,
          "internalType": "address",
          "name": "operator",
          "type": "address"
        },
        {
          "indexed": false,
          "internalType": "bool",
          "name": "approved",
          "type": "bool"
        }
      ],
      "name": "ApprovalForAll",
      "type": "event"
    },
    {
      "anonymous": false,
      "inputs": [
        {
          "indexed": false,
          "internalType": "uint8",
          "name": "version",
          "type": "uint8"
        }
      ],
      "name": "Initialized",
      "type": "event"
    },
    {
      "anonymous": false,
      "inputs": [
        {
          "indexed": true,
          "internalType": "address",
          "name": "previousOwner",
          "type": "address"
        },
        {
          "indexed": true,
          "internalType": "address",
          "name": "newOwner",
          "type": "address"
        }
      ],
      "name": "OwnershipTransferred",
      "type": "event"
    },
    {
      "anonymous": false,
      "inputs": [
        {
          "indexed": false,
          "internalType": "address",
          "name": "account",
          "type": "address"
        }
      ],
      "name": "Paused",
      "type": "event"
    },
    {
      "anonymous": false,
      "inputs": [
        {
          "indexed": true,
          "internalType": "address",
          "name": "from",
          "type": "address"
        },
        {
          "indexed": true,
          "internalType": "address",
          "name": "to",
          "type": "address"
        },
        {
          "indexed": true,
          "internalType": "uint256",
          "name": "tokenId",
          "type": "uint256"
        }
      ],
      "name": "Transfer",
      "type": "event"
    },
    {
      "anonymous": false,
      "inputs": [
        {
          "indexed": false,
          "internalType": "address",
          "name": "account",
          "type": "address"
        }
      ],
      "name": "Unpaused",
      "type": "event"
    },
    {
      "inputs": [
        {
          "internalType": "address",
          "name": "to",
          "type": "address"
        },
        {
          "internalType": "uint256",
          "name": "tokenId",
          "type": "uint256"
        }
      ],
      "name": "approve",
      "outputs": [],
      "stateMutability": "nonpayable",
      "type": "function"
    },
    {
      "inputs": [
        {
          "internalType": "address",
          "name": "owner",
          "type": "address"
        }
      ],
      "name": "balanceOf",
      "outputs": [
        {
          "internalType": "uint256",
          "name": "",
          "type": "uint256"
        }
      ],
      "stateMutability": "view",
      "type": "function",
      "constant": true
    },
    {
      "inputs": [
        {
          "internalType": "uint256",
          "name": "tokenId",
          "type": "uint256"
        }
      ],
      "name": "burn",
      "outputs": [],
      "stateMutability": "nonpayable",
      "type": "function"
    },
    {
      "inputs": [
        {
          "internalType": "uint256",
          "name": "tokenId",
          "type": "uint256"
        }
      ],
      "name": "getApproved",
      "outputs": [
        {
          "internalType": "address",
          "name": "",
          "type": "address"
        }
      ],
      "stateMutability": "view",
      "type": "function",
      "constant": true
    },
    {
      "inputs": [
        {
          "internalType": "address",
          "name": "owner",
          "type": "address"
        },
        {
          "internalType": "address",
          "name": "operator",
          "type": "address"
        }
      ],
      "name": "isApprovedForAll",
      "outputs": [
        {
          "internalType": "bool",
          "name": "",
          "type": "bool"
        }
      ],
      "stateMutability": "view",
      "type": "function",
      "constant": true
    },
    {
      "inputs": [],
      "name": "name",
      "outputs": [
        {
          "internalType": "string",
          "name": "",
          "type": "string"
        }
      ],
      "stateMutability": "view",
      "type": "function",
      "constant": true
    },
    {
      "inputs": [],
      "name": "owner",
      "outputs": [
        {
          "internalType": "address",
          "name": "",
          "type": "address"
        }
      ],
      "stateMutability": "view",
      "type": "function",
      "constant": true
    },
    {
      "inputs": [
        {
          "internalType": "uint256",
          "name": "tokenId",
          "type": "uint256"
        }
      ],
      "name": "ownerOf",
      "outputs": [
        {
          "internalType": "address",
          "name": "",
          "type": "address"
        }
      ],
      "stateMutability": "view",
      "type": "function",
      "constant": true
    },
    {
      "inputs": [],
      "name": "paused",
      "outputs": [
        {
          "internalType": "bool",
          "name": "",
          "type": "bool"
        }
      ],
      "stateMutability": "view",
      "type": "function",
      "constant": true
    },
    {
      "inputs": [],
      "name": "renounceOwnership",
      "outputs": [],
      "stateMutability": "nonpayable",
      "type": "function"
    },
    {
      "inputs": [
        {
          "internalType": "address",
          "name": "from",
          "type": "address"
        },
        {
          "internalType": "address",
          "name": "to",
          "type": "address"
        },
        {
          "internalType": "uint256",
          "name": "tokenId",
          "type": "uint256"
        }
      ],
      "name": "safeTransferFrom",
      "outputs": [],
      "stateMutability": "nonpayable",
      "type": "function"
    },
    {
      "inputs": [
        {
          "internalType": "address",
          "name": "from",
          "type": "address"
        },
        {
          "internalType": "address",
          "name": "to",
          "type": "address"
        },
        {
          "internalType": "uint256",
          "name": "tokenId",
          "type": "uint256"
        },
        {
          "internalType": "bytes",
          "name": "data",
          "type": "bytes"
        }
      ],
      "name": "safeTransferFrom",
      "outputs": [],
      "stateMutability": "nonpayable",
      "type": "function"
    },
    {
      "inputs": [
        {
          "internalType": "address",
          "name": "operator",
          "type": "address"
        },
        {
          "internalType": "bool",
          "name": "approved",
          "type": "bool"
        }
      ],
      "name": "setApprovalForAll",
      "outputs": [],
      "stateMutability": "nonpayable",
      "type": "function"
    },
    {
      "inputs": [],
      "name": "symbol",
      "outputs": [
        {
          "internalType": "string",
          "name": "",
          "type": "string"
        }
      ],
      "stateMutability": "view",
      "type": "function",
      "constant": true
    },
    {
      "inputs": [
        {
          "internalType": "uint256",
          "name": "index",
          "type": "uint256"
        }
      ],
      "name": "tokenByIndex",
      "outputs": [
        {
          "internalType": "uint256",
          "name": "",
          "type": "uint256"
        }
      ],
      "stateMutability": "view",
      "type": "function",
      "constant": true
    },
    {
      "inputs": [
        {
          "internalType": "address",
          "name": "owner",
          "type": "address"
        },
        {
          "internalType": "uint256",
          "name": "index",
          "type": "uint256"
        }
      ],
      "name": "tokenOfOwnerByIndex",
      "outputs": [
        {
          "internalType": "uint256",
          "name": "",
          "type": "uint256"
        }
      ],
      "stateMutability": "view",
      "type": "function",
      "constant": true
    },
    {
      "inputs": [],
      "name": "totalSupply",
      "outputs": [
        {
          "internalType": "uint256",
          "name": "",
          "type": "uint256"
        }
      ],
      "stateMutability": "view",
      "type": "function",
      "constant": true
    },
    {
      "inputs": [
        {
          "internalType": "address",
          "name": "from",
          "type": "address"
        },
        {
          "internalType": "address",
          "name": "to",
          "type": "address"
        },
        {
          "internalType": "uint256",
          "name": "tokenId",
          "type": "uint256"
        }
      ],
      "name": "transferFrom",
      "outputs": [],
      "stateMutability": "nonpayable",
      "type": "function"
    },
    {
      "inputs": [
        {
          "internalType": "address",
          "name": "newOwner",
          "type": "address"
        }
      ],
      "name": "transferOwnership",
      "outputs": [],
      "stateMutability": "nonpayable",
      "type": "function"
    },
    {
      "inputs": [],
      "name": "initialize",
      "outputs": [],
      "stateMutability": "nonpayable",
      "type": "function"
    },
    {
      "inputs": [],
      "name": "pause",
      "outputs": [],
      "stateMutability": "nonpayable",
      "type": "function"
    },
    {
      "inputs": [],
      "name": "unpause",
      "outputs": [],
      "stateMutability": "nonpayable",
      "type": "function"
    },
    {
      "inputs": [
        {
          "internalType": "address",
          "name": "to",
          "type": "address"
        },
        {
          "internalType": "string",
          "name": "uri",
          "type": "string"
        }
      ],
      "name": "safeMint",
      "outputs": [],
      "stateMutability": "nonpayable",
      "type": "function"
    },
    {
      "inputs": [
        {
          "internalType": "uint256",
          "name": "tokenId",
          "type": "uint256"
        }
      ],
      "name": "tokenURI",
      "outputs": [
        {
          "internalType": "string",
          "name": "",
          "type": "string"
        }
      ],
      "stateMutability": "view",
      "type": "function",
      "constant": true
    },
    {
      "inputs": [
        {
          "internalType": "bytes4",
          "name": "interfaceId",
          "type": "bytes4"
        }
      ],
      "name": "supportsInterface",
      "outputs": [
        {
          "internalType": "bool",
          "name": "",
          "type": "bool"
        }
      ],
      "stateMutability": "view",
      "type": "function",
      "constant": true
    }
  ],
  "bytecode": "0x60806040523480156200001157600080fd5b50620000226200002860201b60201c565b62000998565b60008060019054906101000a900460ff161590508080156200005a5750600160008054906101000a900460ff1660ff16105b8062000096575062000077306200024160201b62000e911760201c565b158015620000955750600160008054906101000a900460ff1660ff16145b5b620000d8576040517f08c379a0000000000000000000000000000000000000000000000000000000008152600401620000cf9062000802565b60405180910390fd5b60016000806101000a81548160ff021916908360ff160217905550801562000116576001600060016101000a81548160ff0219169083151502179055505b620001926040518060400160405280600981526020017f4d79546573744e465400000000000000000000000000000000000000000000008152506040518060400160405280600381526020017f47474700000000000000000000000000000000000000000000000000000000008152506200026460201b60201c565b620001a2620002cc60201b60201c565b620001b26200032060201b60201c565b620001c26200037460201b60201c565b620001d2620003d860201b60201c565b620001e26200043c60201b60201c565b80156200023e5760008060016101000a81548160ff0219169083151502179055507f7f26b83ff96e1f2b6a682f133852f6798a09c465da95921460cefb384740249860016040516200023591906200087e565b60405180910390a15b50565b6000808273ffffffffffffffffffffffffffffffffffffffff163b119050919050565b600060019054906101000a900460ff16620002b6576040517f08c379a0000000000000000000000000000000000000000000000000000000008152600401620002ad9062000911565b60405180910390fd5b620002c882826200049060201b60201c565b5050565b600060019054906101000a900460ff166200031e576040517f08c379a0000000000000000000000000000000000000000000000000000000008152600401620003159062000911565b60405180910390fd5b565b600060019054906101000a900460ff1662000372576040517f08c379a0000000000000000000000000000000000000000000000000000000008152600401620003699062000911565b60405180910390fd5b565b600060019054906101000a900460ff16620003c6576040517f08c379a0000000000000000000000000000000000000000000000000000000008152600401620003bd9062000911565b60405180910390fd5b620003d66200051860201b60201c565b565b600060019054906101000a900460ff166200042a576040517f08c379a0000000000000000000000000000000000000000000000000000000008152600401620004219062000911565b60405180910390fd5b6200043a6200058760201b60201c565b565b600060019054906101000a900460ff166200048e576040517f08c379a0000000000000000000000000000000000000000000000000000000008152600401620004859062000911565b60405180910390fd5b565b600060019054906101000a900460ff16620004e2576040517f08c379a0000000000000000000000000000000000000000000000000000000008152600401620004d99062000911565b60405180910390fd5b8160659080519060200190620004fa929190620006cb565b50806066908051906020019062000513929190620006cb565b505050565b600060019054906101000a900460ff166200056a576040517f08c379a0000000000000000000000000000000000000000000000000000000008152600401620005619062000911565b60405180910390fd5b600060fb60006101000a81548160ff021916908315150217905550565b600060019054906101000a900460ff16620005d9576040517f08c379a0000000000000000000000000000000000000000000000000000000008152600401620005d09062000911565b60405180910390fd5b620005f9620005ed620005fb60201b60201c565b6200060360201b60201c565b565b600033905090565b600061012d60009054906101000a900473ffffffffffffffffffffffffffffffffffffffff1690508161012d60006101000a81548173ffffffffffffffffffffffffffffffffffffffff021916908373ffffffffffffffffffffffffffffffffffffffff1602179055508173ffffffffffffffffffffffffffffffffffffffff168173ffffffffffffffffffffffffffffffffffffffff167f8be0079c531659141344cd1fd0a4f28419497f9722a3daafe3b4186f6b6457e060405160405180910390a35050565b828054620006d99062000962565b90600052602060002090601f016020900481019282620006fd576000855562000749565b82601f106200071857805160ff191683800117855562000749565b8280016001018555821562000749579182015b82811115620007485782518255916020019190600101906200072b565b5b5090506200075891906200075c565b5090565b5b80821115620007775760008160009055506001016200075d565b5090565b600082825260208201905092915050565b7f496e697469616c697a61626c653a20636f6e747261637420697320616c72656160008201527f647920696e697469616c697a6564000000000000000000000000000000000000602082015250565b6000620007ea602e836200077b565b9150620007f7826200078c565b604082019050919050565b600060208201905081810360008301526200081d81620007db565b9050919050565b6000819050919050565b600060ff82169050919050565b6000819050919050565b600062000866620008606200085a8462000824565b6200083b565b6200082e565b9050919050565b620008788162000845565b82525050565b60006020820190506200089560008301846200086d565b92915050565b7f496e697469616c697a61626c653a20636f6e7472616374206973206e6f74206960008201527f6e697469616c697a696e67000000000000000000000000000000000000000000602082015250565b6000620008f9602b836200077b565b915062000906826200089b565b604082019050919050565b600060208201905081810360008301526200092c81620008ea565b9050919050565b7f4e487b7100000000000000000000000000000000000000000000000000000000600052602260045260246000fd5b600060028204905060018216806200097b57607f821691505b6020821081141562000992576200099162000933565b5b50919050565b61433880620009a86000396000f3fe608060405234801561001057600080fd5b50600436106101735760003560e01c80636352211e116100de57806395d89b4111610097578063c87b56dd11610071578063c87b56dd146103fe578063d204c45e1461042e578063e985e9c51461044a578063f2fde38b1461047a57610173565b806395d89b41146103a8578063a22cb465146103c6578063b88d4fde146103e257610173565b80636352211e1461030c57806370a082311461033c578063715018a61461036c5780638129fc1c146103765780638456cb59146103805780638da5cb5b1461038a57610173565b80632f745c59116101305780632f745c591461024c5780633f4ba83a1461027c57806342842e0e1461028657806342966c68146102a25780634f6ccce7146102be5780635c975abb146102ee57610173565b806301ffc9a71461017857806306fdde03146101a8578063081812fc146101c6578063095ea7b3146101f657806318160ddd1461021257806323b872dd14610230575b600080fd5b610192600480360381019061018d9190612e67565b610496565b60405161019f9190612eaf565b60405180910390f35b6101b06104a8565b6040516101bd9190612f63565b60405180910390f35b6101e060048036038101906101db9190612fbb565b61053a565b6040516101ed9190613029565b60405180910390f35b610210600480360381019061020b9190613070565b610580565b005b61021a610698565b60405161022791906130bf565b60405180910390f35b61024a600480360381019061024591906130da565b6106a5565b005b61026660048036038101906102619190613070565b610705565b60405161027391906130bf565b60405180910390f35b6102846107aa565b005b6102a0600480360381019061029b91906130da565b6107bc565b005b6102bc60048036038101906102b79190612fbb565b6107dc565b005b6102d860048036038101906102d39190612fbb565b610838565b6040516102e591906130bf565b60405180910390f35b6102f66108a9565b6040516103039190612eaf565b60405180910390f35b61032660048036038101906103219190612fbb565b6108c0565b6040516103339190613029565b60405180910390f35b6103566004803603810190610351919061312d565b610947565b60405161036391906130bf565b60405180910390f35b6103746109ff565b005b61037e610a13565b005b610388610be5565b005b610392610bf7565b60405161039f9190613029565b60405180910390f35b6103b0610c22565b6040516103bd9190612f63565b60405180910390f35b6103e060048036038101906103db9190613186565b610cb4565b005b6103fc60048036038101906103f791906132fb565b610cca565b005b61041860048036038101906104139190612fbb565b610d2c565b6040516104259190612f63565b60405180910390f35b6104486004803603810190610443919061341f565b610d3e565b005b610464600480360381019061045f919061347b565b610d79565b6040516104719190612eaf565b60405180910390f35b610494600480360381019061048f919061312d565b610e0d565b005b60006104a182610eb4565b9050919050565b6060606580546104b7906134ea565b80601f01602080910402602001604051908101604052809291908181526020018280546104e3906134ea565b80156105305780601f1061050557610100808354040283529160200191610530565b820191906000526020600020905b81548152906001019060200180831161051357829003601f168201915b5050505050905090565b600061054582610f2e565b6069600083815260200190815260200160002060009054906101000a900473ffffffffffffffffffffffffffffffffffffffff169050919050565b600061058b826108c0565b90508073ffffffffffffffffffffffffffffffffffffffff168373ffffffffffffffffffffffffffffffffffffffff1614156105fc576040517f08c379a00000000000000000000000000000000000000000000000000000000081526004016105f39061358e565b60405180910390fd5b8073ffffffffffffffffffffffffffffffffffffffff1661061b610f79565b73ffffffffffffffffffffffffffffffffffffffff16148061064a575061064981610644610f79565b610d79565b5b610689576040517f08c379a000000000000000000000000000000000000000000000000000000000815260040161068090613620565b60405180910390fd5b6106938383610f81565b505050565b6000609980549050905090565b6106b66106b0610f79565b8261103a565b6106f5576040517f08c379a00000000000000000000000000000000000000000000000000000000081526004016106ec906136b2565b60405180910390fd5b6107008383836110cf565b505050565b600061071083610947565b8210610751576040517f08c379a000000000000000000000000000000000000000000000000000000000815260040161074890613744565b60405180910390fd5b609760008473ffffffffffffffffffffffffffffffffffffffff1673ffffffffffffffffffffffffffffffffffffffff168152602001908152602001600020600083815260200190815260200160002054905092915050565b6107b26113c9565b6107ba611447565b565b6107d783838360405180602001604052806000815250610cca565b505050565b6107ed6107e7610f79565b8261103a565b61082c576040517f08c379a0000000000000000000000000000000000000000000000000000000008152600401610823906136b2565b60405180910390fd5b610835816114aa565b50565b6000610842610698565b8210610883576040517f08c379a000000000000000000000000000000000000000000000000000000000815260040161087a906137d6565b60405180910390fd5b60998281548110610897576108966137f6565b5b90600052602060002001549050919050565b600060fb60009054906101000a900460ff16905090565b6000806108cc836114b6565b9050600073ffffffffffffffffffffffffffffffffffffffff168173ffffffffffffffffffffffffffffffffffffffff16141561093e576040517f08c379a000000000000000000000000000000000000000000000000000000000815260040161093590613871565b60405180910390fd5b80915050919050565b60008073ffffffffffffffffffffffffffffffffffffffff168273ffffffffffffffffffffffffffffffffffffffff1614156109b8576040517f08c379a00000000000000000000000000000000000000000000000000000000081526004016109af90613903565b60405180910390fd5b606860008373ffffffffffffffffffffffffffffffffffffffff1673ffffffffffffffffffffffffffffffffffffffff168152602001908152602001600020549050919050565b610a076113c9565b610a1160006114f3565b565b60008060019054906101000a900460ff16159050808015610a445750600160008054906101000a900460ff1660ff16105b80610a715750610a5330610e91565b158015610a705750600160008054906101000a900460ff1660ff16145b5b610ab0576040517f08c379a0000000000000000000000000000000000000000000000000000000008152600401610aa790613995565b60405180910390fd5b60016000806101000a81548160ff021916908360ff1602179055508015610aed576001600060016101000a81548160ff0219169083151502179055505b610b616040518060400160405280600981526020017f4d79546573744e465400000000000000000000000000000000000000000000008152506040518060400160405280600381526020017f47474700000000000000000000000000000000000000000000000000000000008152506115bb565b610b69611618565b610b71611669565b610b796116ba565b610b81611713565b610b8961176c565b8015610be25760008060016101000a81548160ff0219169083151502179055507f7f26b83ff96e1f2b6a682f133852f6798a09c465da95921460cefb38474024986001604051610bd99190613a07565b60405180910390a15b50565b610bed6113c9565b610bf56117bd565b565b600061012d60009054906101000a900473ffffffffffffffffffffffffffffffffffffffff16905090565b606060668054610c31906134ea565b80601f0160208091040260200160405190810160405280929190818152602001828054610c5d906134ea565b8015610caa5780601f10610c7f57610100808354040283529160200191610caa565b820191906000526020600020905b815481529060010190602001808311610c8d57829003601f168201915b5050505050905090565b610cc6610cbf610f79565b8383611820565b5050565b610cdb610cd5610f79565b8361103a565b610d1a576040517f08c379a0000000000000000000000000000000000000000000000000000000008152600401610d11906136b2565b60405180910390fd5b610d268484848461198d565b50505050565b6060610d37826119e9565b9050919050565b610d466113c9565b6000610d53610191611afc565b9050610d60610191611b0a565b610d6a8382611b20565b610d748183611b3e565b505050565b6000606a60008473ffffffffffffffffffffffffffffffffffffffff1673ffffffffffffffffffffffffffffffffffffffff16815260200190815260200160002060008373ffffffffffffffffffffffffffffffffffffffff1673ffffffffffffffffffffffffffffffffffffffff16815260200190815260200160002060009054906101000a900460ff16905092915050565b610e156113c9565b600073ffffffffffffffffffffffffffffffffffffffff168173ffffffffffffffffffffffffffffffffffffffff161415610e85576040517f08c379a0000000000000000000000000000000000000000000000000000000008152600401610e7c90613a94565b60405180910390fd5b610e8e816114f3565b50565b6000808273ffffffffffffffffffffffffffffffffffffffff163b119050919050565b60007f780e9d63000000000000000000000000000000000000000000000000000000007bffffffffffffffffffffffffffffffffffffffffffffffffffffffff1916827bffffffffffffffffffffffffffffffffffffffffffffffffffffffff19161480610f275750610f2682611bb2565b5b9050919050565b610f3781611c94565b610f76576040517f08c379a0000000000000000000000000000000000000000000000000000000008152600401610f6d90613871565b60405180910390fd5b50565b600033905090565b816069600083815260200190815260200160002060006101000a81548173ffffffffffffffffffffffffffffffffffffffff021916908373ffffffffffffffffffffffffffffffffffffffff160217905550808273ffffffffffffffffffffffffffffffffffffffff16610ff4836108c0565b73ffffffffffffffffffffffffffffffffffffffff167f8c5be1e5ebec7d5bd14f71427d1e84f3dd0314c0f7b2291e5b200ac8c7c3b92560405160405180910390a45050565b600080611046836108c0565b90508073ffffffffffffffffffffffffffffffffffffffff168473ffffffffffffffffffffffffffffffffffffffff16148061108857506110878185610d79565b5b806110c657508373ffffffffffffffffffffffffffffffffffffffff166110ae8461053a565b73ffffffffffffffffffffffffffffffffffffffff16145b91505092915050565b8273ffffffffffffffffffffffffffffffffffffffff166110ef826108c0565b73ffffffffffffffffffffffffffffffffffffffff1614611145576040517f08c379a000000000000000000000000000000000000000000000000000000000815260040161113c90613b26565b60405180910390fd5b600073ffffffffffffffffffffffffffffffffffffffff168273ffffffffffffffffffffffffffffffffffffffff1614156111b5576040517f08c379a00000000000000000000000000000000000000000000000000000000081526004016111ac90613bb8565b60405180910390fd5b6111c28383836001611cd5565b8273ffffffffffffffffffffffffffffffffffffffff166111e2826108c0565b73ffffffffffffffffffffffffffffffffffffffff1614611238576040517f08c379a000000000000000000000000000000000000000000000000000000000815260040161122f90613b26565b60405180910390fd5b6069600082815260200190815260200160002060006101000a81549073ffffffffffffffffffffffffffffffffffffffff02191690556001606860008573ffffffffffffffffffffffffffffffffffffffff1673ffffffffffffffffffffffffffffffffffffffff168152602001908152602001600020600082825403925050819055506001606860008473ffffffffffffffffffffffffffffffffffffffff1673ffffffffffffffffffffffffffffffffffffffff16815260200190815260200160002060008282540192505081905550816067600083815260200190815260200160002060006101000a81548173ffffffffffffffffffffffffffffffffffffffff021916908373ffffffffffffffffffffffffffffffffffffffff160217905550808273ffffffffffffffffffffffffffffffffffffffff168473ffffffffffffffffffffffffffffffffffffffff167fddf252ad1be2c89b69c2b068fc378daa952ba7f163c4a11628f55a4df523b3ef60405160405180910390a46113c48383836001611cef565b505050565b6113d1610f79565b73ffffffffffffffffffffffffffffffffffffffff166113ef610bf7565b73ffffffffffffffffffffffffffffffffffffffff1614611445576040517f08c379a000000000000000000000000000000000000000000000000000000000815260040161143c90613c24565b60405180910390fd5b565b61144f611cf5565b600060fb60006101000a81548160ff0219169083151502179055507f5db9ee0a495bf2e6ff9c91a7834c1ba4fdd244a5e8aa4e537bd38aeae4b073aa611493610f79565b6040516114a09190613029565b60405180910390a1565b6114b381611d3e565b50565b60006067600083815260200190815260200160002060009054906101000a900473ffffffffffffffffffffffffffffffffffffffff169050919050565b600061012d60009054906101000a900473ffffffffffffffffffffffffffffffffffffffff1690508161012d60006101000a81548173ffffffffffffffffffffffffffffffffffffffff021916908373ffffffffffffffffffffffffffffffffffffffff1602179055508173ffffffffffffffffffffffffffffffffffffffff168173ffffffffffffffffffffffffffffffffffffffff167f8be0079c531659141344cd1fd0a4f28419497f9722a3daafe3b4186f6b6457e060405160405180910390a35050565b600060019054906101000a900460ff1661160a576040517f08c379a000000000000000000000000000000000000000000000000000000000815260040161160190613cb6565b60405180910390fd5b6116148282611d91565b5050565b600060019054906101000a900460ff16611667576040517f08c379a000000000000000000000000000000000000000000000000000000000815260040161165e90613cb6565b60405180910390fd5b565b600060019054906101000a900460ff166116b8576040517f08c379a00000000000000000000000000000000000000000000000000000000081526004016116af90613cb6565b60405180910390fd5b565b600060019054906101000a900460ff16611709576040517f08c379a000000000000000000000000000000000000000000000000000000000815260040161170090613cb6565b60405180910390fd5b611711611e12565b565b600060019054906101000a900460ff16611762576040517f08c379a000000000000000000000000000000000000000000000000000000000815260040161175990613cb6565b60405180910390fd5b61176a611e7e565b565b600060019054906101000a900460ff166117bb576040517f08c379a00000000000000000000000000000000000000000000000000000000081526004016117b290613cb6565b60405180910390fd5b565b6117c5611edf565b600160fb60006101000a81548160ff0219169083151502179055507f62e78cea01bee320cd4e420270b5ea74000d11b0c9f74754ebdbfc544b05a258611809610f79565b6040516118169190613029565b60405180910390a1565b8173ffffffffffffffffffffffffffffffffffffffff168373ffffffffffffffffffffffffffffffffffffffff16141561188f576040517f08c379a000000000000000000000000000000000000000000000000000000000815260040161188690613d22565b60405180910390fd5b80606a60008573ffffffffffffffffffffffffffffffffffffffff1673ffffffffffffffffffffffffffffffffffffffff16815260200190815260200160002060008473ffffffffffffffffffffffffffffffffffffffff1673ffffffffffffffffffffffffffffffffffffffff16815260200190815260200160002060006101000a81548160ff0219169083151502179055508173ffffffffffffffffffffffffffffffffffffffff168373ffffffffffffffffffffffffffffffffffffffff167f17307eab39ab6107e8899845ad3d59bd9653f200f220920489ca2b5937696c31836040516119809190612eaf565b60405180910390a3505050565b6119988484846110cf565b6119a484848484611f29565b6119e3576040517f08c379a00000000000000000000000000000000000000000000000000000000081526004016119da90613db4565b60405180910390fd5b50505050565b60606119f482610f2e565b600060c960008481526020019081526020016000208054611a14906134ea565b80601f0160208091040260200160405190810160405280929190818152602001828054611a40906134ea565b8015611a8d5780601f10611a6257610100808354040283529160200191611a8d565b820191906000526020600020905b815481529060010190602001808311611a7057829003601f168201915b505050505090506000611a9e6120b1565b9050600081511415611ab4578192505050611af7565b600082511115611ae9578082604051602001611ad1929190613e10565b60405160208183030381529060405292505050611af7565b611af2846120c8565b925050505b919050565b600081600001549050919050565b6001816000016000828254019250508190555050565b611b3a828260405180602001604052806000815250612130565b5050565b611b4782611c94565b611b86576040517f08c379a0000000000000000000000000000000000000000000000000000000008152600401611b7d90613ea6565b60405180910390fd5b8060c960008481526020019081526020016000209080519060200190611bad929190612d18565b505050565b60007f80ac58cd000000000000000000000000000000000000000000000000000000007bffffffffffffffffffffffffffffffffffffffffffffffffffffffff1916827bffffffffffffffffffffffffffffffffffffffffffffffffffffffff19161480611c7d57507f5b5e139f000000000000000000000000000000000000000000000000000000007bffffffffffffffffffffffffffffffffffffffffffffffffffffffff1916827bffffffffffffffffffffffffffffffffffffffffffffffffffffffff1916145b80611c8d5750611c8c8261218b565b5b9050919050565b60008073ffffffffffffffffffffffffffffffffffffffff16611cb6836114b6565b73ffffffffffffffffffffffffffffffffffffffff1614159050919050565b611cdd611edf565b611ce9848484846121f5565b50505050565b50505050565b611cfd6108a9565b611d3c576040517f08c379a0000000000000000000000000000000000000000000000000000000008152600401611d3390613f12565b60405180910390fd5b565b611d4781612355565b600060c960008381526020019081526020016000208054611d67906134ea565b905014611d8e5760c960008281526020019081526020016000206000611d8d9190612d9e565b5b50565b600060019054906101000a900460ff16611de0576040517f08c379a0000000000000000000000000000000000000000000000000000000008152600401611dd790613cb6565b60405180910390fd5b8160659080519060200190611df6929190612d18565b508060669080519060200190611e0d929190612d18565b505050565b600060019054906101000a900460ff16611e61576040517f08c379a0000000000000000000000000000000000000000000000000000000008152600401611e5890613cb6565b60405180910390fd5b600060fb60006101000a81548160ff021916908315150217905550565b600060019054906101000a900460ff16611ecd576040517f08c379a0000000000000000000000000000000000000000000000000000000008152600401611ec490613cb6565b60405180910390fd5b611edd611ed8610f79565b6114f3565b565b611ee76108a9565b15611f27576040517f08c379a0000000000000000000000000000000000000000000000000000000008152600401611f1e90613f7e565b60405180910390fd5b565b6000611f4a8473ffffffffffffffffffffffffffffffffffffffff16610e91565b156120a4578373ffffffffffffffffffffffffffffffffffffffff1663150b7a02611f73610f79565b8786866040518563ffffffff1660e01b8152600401611f959493929190613ff3565b6020604051808303816000875af1925050508015611fd157506040513d601f19601f82011682018060405250810190611fce9190614054565b60015b612054573d8060008114612001576040519150601f19603f3d011682016040523d82523d6000602084013e612006565b606091505b5060008151141561204c576040517f08c379a000000000000000000000000000000000000000000000000000000000815260040161204390613db4565b60405180910390fd5b805181602001fd5b63150b7a0260e01b7bffffffffffffffffffffffffffffffffffffffffffffffffffffffff1916817bffffffffffffffffffffffffffffffffffffffffffffffffffffffff1916149150506120a9565b600190505b949350505050565b606060405180602001604052806000815250905090565b60606120d382610f2e565b60006120dd6120b1565b905060008151116120fd5760405180602001604052806000815250612128565b80612107846124a3565b604051602001612118929190613e10565b6040516020818303038152906040525b915050919050565b61213a838361257b565b6121476000848484611f29565b612186576040517f08c379a000000000000000000000000000000000000000000000000000000000815260040161217d90613db4565b60405180910390fd5b505050565b60007f01ffc9a7000000000000000000000000000000000000000000000000000000007bffffffffffffffffffffffffffffffffffffffffffffffffffffffff1916827bffffffffffffffffffffffffffffffffffffffffffffffffffffffff1916149050919050565b61220184848484612799565b6001811115612245576040517f08c379a000000000000000000000000000000000000000000000000000000000815260040161223c906140f3565b60405180910390fd5b6000829050600073ffffffffffffffffffffffffffffffffffffffff168573ffffffffffffffffffffffffffffffffffffffff16141561228d57612288816128bf565b6122cc565b8373ffffffffffffffffffffffffffffffffffffffff168573ffffffffffffffffffffffffffffffffffffffff16146122cb576122ca8582612908565b5b5b600073ffffffffffffffffffffffffffffffffffffffff168473ffffffffffffffffffffffffffffffffffffffff16141561230f5761230a81612a75565b61234e565b8473ffffffffffffffffffffffffffffffffffffffff168473ffffffffffffffffffffffffffffffffffffffff161461234d5761234c8482612b46565b5b5b5050505050565b6000612360826108c0565b9050612370816000846001611cd5565b612379826108c0565b90506069600083815260200190815260200160002060006101000a81549073ffffffffffffffffffffffffffffffffffffffff02191690556001606860008373ffffffffffffffffffffffffffffffffffffffff1673ffffffffffffffffffffffffffffffffffffffff168152602001908152602001600020600082825403925050819055506067600083815260200190815260200160002060006101000a81549073ffffffffffffffffffffffffffffffffffffffff021916905581600073ffffffffffffffffffffffffffffffffffffffff168273ffffffffffffffffffffffffffffffffffffffff167fddf252ad1be2c89b69c2b068fc378daa952ba7f163c4a11628f55a4df523b3ef60405160405180910390a461249f816000846001611cef565b5050565b6060600060016124b284612bc5565b01905060008167ffffffffffffffff8111156124d1576124d06131d0565b5b6040519080825280601f01601f1916602001820160405280156125035781602001600182028036833780820191505090505b509050600082602001820190505b600115612570578080600190039150507f3031323334353637383961626364656600000000000000000000000000000000600a86061a8153600a858161255a57612559614113565b5b049450600085141561256b57612570565b612511565b819350505050919050565b600073ffffffffffffffffffffffffffffffffffffffff168273ffffffffffffffffffffffffffffffffffffffff1614156125eb576040517f08c379a00000000000000000000000000000000000000000000000000000000081526004016125e29061418e565b60405180910390fd5b6125f481611c94565b15612634576040517f08c379a000000000000000000000000000000000000000000000000000000000815260040161262b906141fa565b60405180910390fd5b612642600083836001611cd5565b61264b81611c94565b1561268b576040517f08c379a0000000000000000000000000000000000000000000000000000000008152600401612682906141fa565b60405180910390fd5b6001606860008473ffffffffffffffffffffffffffffffffffffffff1673ffffffffffffffffffffffffffffffffffffffff16815260200190815260200160002060008282540192505081905550816067600083815260200190815260200160002060006101000a81548173ffffffffffffffffffffffffffffffffffffffff021916908373ffffffffffffffffffffffffffffffffffffffff160217905550808273ffffffffffffffffffffffffffffffffffffffff16600073ffffffffffffffffffffffffffffffffffffffff167fddf252ad1be2c89b69c2b068fc378daa952ba7f163c4a11628f55a4df523b3ef60405160405180910390a4612795600083836001611cef565b5050565b60018111156128b957600073ffffffffffffffffffffffffffffffffffffffff168473ffffffffffffffffffffffffffffffffffffffff161461282d5780606860008673ffffffffffffffffffffffffffffffffffffffff1673ffffffffffffffffffffffffffffffffffffffff16815260200190815260200160002060008282546128259190614249565b925050819055505b600073ffffffffffffffffffffffffffffffffffffffff168373ffffffffffffffffffffffffffffffffffffffff16146128b85780606860008573ffffffffffffffffffffffffffffffffffffffff1673ffffffffffffffffffffffffffffffffffffffff16815260200190815260200160002060008282546128b0919061427d565b925050819055505b5b50505050565b609980549050609a600083815260200190815260200160002081905550609981908060018154018082558091505060019003906000526020600020016000909190919091505550565b6000600161291584610947565b61291f9190614249565b9050600060986000848152602001908152602001600020549050818114612a04576000609760008673ffffffffffffffffffffffffffffffffffffffff1673ffffffffffffffffffffffffffffffffffffffff168152602001908152602001600020600084815260200190815260200160002054905080609760008773ffffffffffffffffffffffffffffffffffffffff1673ffffffffffffffffffffffffffffffffffffffff168152602001908152602001600020600084815260200190815260200160002081905550816098600083815260200190815260200160002081905550505b6098600084815260200190815260200160002060009055609760008573ffffffffffffffffffffffffffffffffffffffff1673ffffffffffffffffffffffffffffffffffffffff16815260200190815260200160002060008381526020019081526020016000206000905550505050565b60006001609980549050612a899190614249565b90506000609a6000848152602001908152602001600020549050600060998381548110612ab957612ab86137f6565b5b906000526020600020015490508060998381548110612adb57612ada6137f6565b5b906000526020600020018190555081609a600083815260200190815260200160002081905550609a6000858152602001908152602001600020600090556099805480612b2a57612b296142d3565b5b6001900381819060005260206000200160009055905550505050565b6000612b5183610947565b905081609760008573ffffffffffffffffffffffffffffffffffffffff1673ffffffffffffffffffffffffffffffffffffffff168152602001908152602001600020600083815260200190815260200160002081905550806098600084815260200190815260200160002081905550505050565b600080600090507a184f03e93ff9f4daa797ed6e38ed64bf6a1f0100000000000000008310612c23577a184f03e93ff9f4daa797ed6e38ed64bf6a1f0100000000000000008381612c1957612c18614113565b5b0492506040810190505b6d04ee2d6d415b85acef81000000008310612c60576d04ee2d6d415b85acef81000000008381612c5657612c55614113565b5b0492506020810190505b662386f26fc100008310612c8f57662386f26fc100008381612c8557612c84614113565b5b0492506010810190505b6305f5e1008310612cb8576305f5e1008381612cae57612cad614113565b5b0492506008810190505b6127108310612cdd576127108381612cd357612cd2614113565b5b0492506004810190505b60648310612d005760648381612cf657612cf5614113565b5b0492506002810190505b600a8310612d0f576001810190505b80915050919050565b828054612d24906134ea565b90600052602060002090601f016020900481019282612d465760008555612d8d565b82601f10612d5f57805160ff1916838001178555612d8d565b82800160010185558215612d8d579182015b82811115612d8c578251825591602001919060010190612d71565b5b509050612d9a9190612dde565b5090565b508054612daa906134ea565b6000825580601f10612dbc5750612ddb565b601f016020900490600052602060002090810190612dda9190612dde565b5b50565b5b80821115612df7576000816000905550600101612ddf565b5090565b6000604051905090565b600080fd5b600080fd5b60007fffffffff0000000000000000000000000000000000000000000000000000000082169050919050565b612e4481612e0f565b8114612e4f57600080fd5b50565b600081359050612e6181612e3b565b92915050565b600060208284031215612e7d57612e7c612e05565b5b6000612e8b84828501612e52565b91505092915050565b60008115159050919050565b612ea981612e94565b82525050565b6000602082019050612ec46000830184612ea0565b92915050565b600081519050919050565b600082825260208201905092915050565b60005b83811015612f04578082015181840152602081019050612ee9565b83811115612f13576000848401525b50505050565b6000601f19601f8301169050919050565b6000612f3582612eca565b612f3f8185612ed5565b9350612f4f818560208601612ee6565b612f5881612f19565b840191505092915050565b60006020820190508181036000830152612f7d8184612f2a565b905092915050565b6000819050919050565b612f9881612f85565b8114612fa357600080fd5b50565b600081359050612fb581612f8f565b92915050565b600060208284031215612fd157612fd0612e05565b5b6000612fdf84828501612fa6565b91505092915050565b600073ffffffffffffffffffffffffffffffffffffffff82169050919050565b600061301382612fe8565b9050919050565b61302381613008565b82525050565b600060208201905061303e600083018461301a565b92915050565b61304d81613008565b811461305857600080fd5b50565b60008135905061306a81613044565b92915050565b6000806040838503121561308757613086612e05565b5b60006130958582860161305b565b92505060206130a685828601612fa6565b9150509250929050565b6130b981612f85565b82525050565b60006020820190506130d460008301846130b0565b92915050565b6000806000606084860312156130f3576130f2612e05565b5b60006131018682870161305b565b93505060206131128682870161305b565b925050604061312386828701612fa6565b9150509250925092565b60006020828403121561314357613142612e05565b5b60006131518482850161305b565b91505092915050565b61316381612e94565b811461316e57600080fd5b50565b6000813590506131808161315a565b92915050565b6000806040838503121561319d5761319c612e05565b5b60006131ab8582860161305b565b92505060206131bc85828601613171565b9150509250929050565b600080fd5b600080fd5b7f4e487b7100000000000000000000000000000000000000000000000000000000600052604160045260246000fd5b61320882612f19565b810181811067ffffffffffffffff82111715613227576132266131d0565b5b80604052505050565b600061323a612dfb565b905061324682826131ff565b919050565b600067ffffffffffffffff821115613266576132656131d0565b5b61326f82612f19565b9050602081019050919050565b82818337600083830152505050565b600061329e6132998461324b565b613230565b9050828152602081018484840111156132ba576132b96131cb565b5b6132c584828561327c565b509392505050565b600082601f8301126132e2576132e16131c6565b5b81356132f284826020860161328b565b91505092915050565b6000806000806080858703121561331557613314612e05565b5b60006133238782880161305b565b94505060206133348782880161305b565b935050604061334587828801612fa6565b925050606085013567ffffffffffffffff81111561336657613365612e0a565b5b613372878288016132cd565b91505092959194509250565b600067ffffffffffffffff821115613399576133986131d0565b5b6133a282612f19565b9050602081019050919050565b60006133c26133bd8461337e565b613230565b9050828152602081018484840111156133de576133dd6131cb565b5b6133e984828561327c565b509392505050565b600082601f830112613406576134056131c6565b5b81356134168482602086016133af565b91505092915050565b6000806040838503121561343657613435612e05565b5b60006134448582860161305b565b925050602083013567ffffffffffffffff81111561346557613464612e0a565b5b613471858286016133f1565b9150509250929050565b6000806040838503121561349257613491612e05565b5b60006134a08582860161305b565b92505060206134b18582860161305b565b9150509250929050565b7f4e487b7100000000000000000000000000000000000000000000000000000000600052602260045260246000fd5b6000600282049050600182168061350257607f821691505b60208210811415613516576135156134bb565b5b50919050565b7f4552433732313a20617070726f76616c20746f2063757272656e74206f776e6560008201527f7200000000000000000000000000000000000000000000000000000000000000602082015250565b6000613578602183612ed5565b91506135838261351c565b604082019050919050565b600060208201905081810360008301526135a78161356b565b9050919050565b7f4552433732313a20617070726f76652063616c6c6572206973206e6f7420746f60008201527f6b656e206f776e6572206f7220617070726f76656420666f7220616c6c000000602082015250565b600061360a603d83612ed5565b9150613615826135ae565b604082019050919050565b60006020820190508181036000830152613639816135fd565b9050919050565b7f4552433732313a2063616c6c6572206973206e6f7420746f6b656e206f776e6560008201527f72206f7220617070726f76656400000000000000000000000000000000000000602082015250565b600061369c602d83612ed5565b91506136a782613640565b604082019050919050565b600060208201905081810360008301526136cb8161368f565b9050919050565b7f455243373231456e756d657261626c653a206f776e657220696e646578206f7560008201527f74206f6620626f756e6473000000000000000000000000000000000000000000602082015250565b600061372e602b83612ed5565b9150613739826136d2565b604082019050919050565b6000602082019050818103600083015261375d81613721565b9050919050565b7f455243373231456e756d657261626c653a20676c6f62616c20696e646578206f60008201527f7574206f6620626f756e64730000000000000000000000000000000000000000602082015250565b60006137c0602c83612ed5565b91506137cb82613764565b604082019050919050565b600060208201905081810360008301526137ef816137b3565b9050919050565b7f4e487b7100000000000000000000000000000000000000000000000000000000600052603260045260246000fd5b7f4552433732313a20696e76616c696420746f6b656e2049440000000000000000600082015250565b600061385b601883612ed5565b915061386682613825565b602082019050919050565b6000602082019050818103600083015261388a8161384e565b9050919050565b7f4552433732313a2061646472657373207a65726f206973206e6f74206120766160008201527f6c6964206f776e65720000000000000000000000000000000000000000000000602082015250565b60006138ed602983612ed5565b91506138f882613891565b604082019050919050565b6000602082019050818103600083015261391c816138e0565b9050919050565b7f496e697469616c697a61626c653a20636f6e747261637420697320616c72656160008201527f647920696e697469616c697a6564000000000000000000000000000000000000602082015250565b600061397f602e83612ed5565b915061398a82613923565b604082019050919050565b600060208201905081810360008301526139ae81613972565b9050919050565b6000819050919050565b600060ff82169050919050565b6000819050919050565b60006139f16139ec6139e7846139b5565b6139cc565b6139bf565b9050919050565b613a01816139d6565b82525050565b6000602082019050613a1c60008301846139f8565b92915050565b7f4f776e61626c653a206e6577206f776e657220697320746865207a65726f206160008201527f6464726573730000000000000000000000000000000000000000000000000000602082015250565b6000613a7e602683612ed5565b9150613a8982613a22565b604082019050919050565b60006020820190508181036000830152613aad81613a71565b9050919050565b7f4552433732313a207472616e736665722066726f6d20696e636f72726563742060008201527f6f776e6572000000000000000000000000000000000000000000000000000000602082015250565b6000613b10602583612ed5565b9150613b1b82613ab4565b604082019050919050565b60006020820190508181036000830152613b3f81613b03565b9050919050565b7f4552433732313a207472616e7366657220746f20746865207a65726f2061646460008201527f7265737300000000000000000000000000000000000000000000000000000000602082015250565b6000613ba2602483612ed5565b9150613bad82613b46565b604082019050919050565b60006020820190508181036000830152613bd181613b95565b9050919050565b7f4f776e61626c653a2063616c6c6572206973206e6f7420746865206f776e6572600082015250565b6000613c0e602083612ed5565b9150613c1982613bd8565b602082019050919050565b60006020820190508181036000830152613c3d81613c01565b9050919050565b7f496e697469616c697a61626c653a20636f6e7472616374206973206e6f74206960008201527f6e697469616c697a696e67000000000000000000000000000000000000000000602082015250565b6000613ca0602b83612ed5565b9150613cab82613c44565b604082019050919050565b60006020820190508181036000830152613ccf81613c93565b9050919050565b7f4552433732313a20617070726f766520746f2063616c6c657200000000000000600082015250565b6000613d0c601983612ed5565b9150613d1782613cd6565b602082019050919050565b60006020820190508181036000830152613d3b81613cff565b9050919050565b7f4552433732313a207472616e7366657220746f206e6f6e20455243373231526560008201527f63656976657220696d706c656d656e7465720000000000000000000000000000602082015250565b6000613d9e603283612ed5565b9150613da982613d42565b604082019050919050565b60006020820190508181036000830152613dcd81613d91565b9050919050565b600081905092915050565b6000613dea82612eca565b613df48185613dd4565b9350613e04818560208601612ee6565b80840191505092915050565b6000613e1c8285613ddf565b9150613e288284613ddf565b91508190509392505050565b7f45524337323155524953746f726167653a2055524920736574206f66206e6f6e60008201527f6578697374656e7420746f6b656e000000000000000000000000000000000000602082015250565b6000613e90602e83612ed5565b9150613e9b82613e34565b604082019050919050565b60006020820190508181036000830152613ebf81613e83565b9050919050565b7f5061757361626c653a206e6f7420706175736564000000000000000000000000600082015250565b6000613efc601483612ed5565b9150613f0782613ec6565b602082019050919050565b60006020820190508181036000830152613f2b81613eef565b9050919050565b7f5061757361626c653a2070617573656400000000000000000000000000000000600082015250565b6000613f68601083612ed5565b9150613f7382613f32565b602082019050919050565b60006020820190508181036000830152613f9781613f5b565b9050919050565b600081519050919050565b600082825260208201905092915050565b6000613fc582613f9e565b613fcf8185613fa9565b9350613fdf818560208601612ee6565b613fe881612f19565b840191505092915050565b6000608082019050614008600083018761301a565b614015602083018661301a565b61402260408301856130b0565b81810360608301526140348184613fba565b905095945050505050565b60008151905061404e81612e3b565b92915050565b60006020828403121561406a57614069612e05565b5b60006140788482850161403f565b91505092915050565b7f455243373231456e756d657261626c653a20636f6e736563757469766520747260008201527f616e7366657273206e6f7420737570706f727465640000000000000000000000602082015250565b60006140dd603583612ed5565b91506140e882614081565b604082019050919050565b6000602082019050818103600083015261410c816140d0565b9050919050565b7f4e487b7100000000000000000000000000000000000000000000000000000000600052601260045260246000fd5b7f4552433732313a206d696e7420746f20746865207a65726f2061646472657373600082015250565b6000614178602083612ed5565b915061418382614142565b602082019050919050565b600060208201905081810360008301526141a78161416b565b9050919050565b7f4552433732313a20746f6b656e20616c7265616479206d696e74656400000000600082015250565b60006141e4601c83612ed5565b91506141ef826141ae565b602082019050919050565b60006020820190508181036000830152614213816141d7565b9050919050565b7f4e487b7100000000000000000000000000000000000000000000000000000000600052601160045260246000fd5b600061425482612f85565b915061425f83612f85565b9250828210156142725761427161421a565b5b828203905092915050565b600061428882612f85565b915061429383612f85565b9250827fffffffffffffffffffffffffffffffffffffffffffffffffffffffffffffffff038211156142c8576142c761421a565b5b828201905092915050565b7f4e487b7100000000000000000000000000000000000000000000000000000000600052603160045260246000fdfea26469706673582212209f675ccaacc6806c1c3b655db10cbe83b2296e3b58f2232f028fa31d507e76ea64736f6c634300080a0033",
  "immutableReferences": {},
  "source": "// SPDX-License-Identifier: MIT\npragma solidity ^0.8.10;\n\nimport \"@openzeppelin/contracts-upgradeable/token/ERC721/ERC721Upgradeable.sol\";\nimport \"@openzeppelin/contracts-upgradeable/token/ERC721/extensions/ERC721EnumerableUpgradeable.sol\";\nimport \"@openzeppelin/contracts-upgradeable/token/ERC721/extensions/ERC721URIStorageUpgradeable.sol\";\nimport \"@openzeppelin/contracts-upgradeable/security/PausableUpgradeable.sol\";\nimport \"@openzeppelin/contracts-upgradeable/access/OwnableUpgradeable.sol\";\nimport \"@openzeppelin/contracts-upgradeable/token/ERC721/extensions/ERC721BurnableUpgradeable.sol\";\nimport \"@openzeppelin/contracts-upgradeable/proxy/utils/Initializable.sol\";\nimport \"@openzeppelin/contracts-upgradeable/utils/CountersUpgradeable.sol\";\n\ncontract TestNFT is Initializable, ERC721Upgradeable, ERC721EnumerableUpgradeable, ERC721URIStorageUpgradeable, PausableUpgradeable, OwnableUpgradeable, ERC721BurnableUpgradeable {\n    using CountersUpgradeable for CountersUpgradeable.Counter;\n\n    CountersUpgradeable.Counter private _tokenIdCounter;\n\n    /// @custom:oz-upgrades-unsafe-allow constructor\n    constructor() {\n        //_disableInitializers();\n        initialize();\n    }\n\n    function initialize() initializer public {\n        __ERC721_init(\"MyTestNFT\", \"GGG\");\n        __ERC721Enumerable_init();\n        __ERC721URIStorage_init();\n        __Pausable_init();\n        __Ownable_init();\n        __ERC721Burnable_init();\n    }\n\n    function pause() public onlyOwner {\n        _pause();\n    }\n\n    function unpause() public onlyOwner {\n        _unpause();\n    }\n\n    function safeMint(address to, string memory uri) public onlyOwner {\n        uint256 tokenId = _tokenIdCounter.current();\n        _tokenIdCounter.increment();\n        _safeMint(to, tokenId);\n        _setTokenURI(tokenId, uri);\n    }\n\n    function _beforeTokenTransfer(address from, address to, uint256 tokenId, uint256 batchSize)\n        internal\n        whenNotPaused\n        override(ERC721Upgradeable, ERC721EnumerableUpgradeable)\n    {\n        super._beforeTokenTransfer(from, to, tokenId, batchSize);\n    }\n\n    // The following functions are overrides required by Solidity.\n\n    function _burn(uint256 tokenId)\n        internal\n        override(ERC721Upgradeable, ERC721URIStorageUpgradeable)\n    {\n        super._burn(tokenId);\n    }\n\n    function tokenURI(uint256 tokenId)\n        public\n        view\n        override(ERC721Upgradeable, ERC721URIStorageUpgradeable)\n        returns (string memory)\n    {\n        return super.tokenURI(tokenId);\n    }\n\n    function supportsInterface(bytes4 interfaceId)\n        public\n        view\n        override(ERC721Upgradeable, ERC721EnumerableUpgradeable)\n        returns (bool)\n    {\n        return super.supportsInterface(interfaceId);\n    }\n}\n",
  "sourcePath": "/Users/cqz/Desktop/yiyuangou/contracts/TestNFT.sol",
  "compiler": {
    "name": "solc",
    "version": "0.8.10+commit.fc410830.Emscripten.clang"
  },
  "schemaVersion": "3.4.13",
  "updatedAt": "2023-03-10T13:06:52.238Z",
  "networkType": "ethereum",
  "devdoc": {
    "kind": "dev",
    "methods": {
      "approve(address,uint256)": {
        "details": "See {IERC721-approve}."
      },
      "balanceOf(address)": {
        "details": "See {IERC721-balanceOf}."
      },
      "burn(uint256)": {
        "details": "Burns `tokenId`. See {ERC721-_burn}. Requirements: - The caller must own `tokenId` or be an approved operator."
      },
      "constructor": {
        "custom:oz-upgrades-unsafe-allow": "constructor"
      },
      "getApproved(uint256)": {
        "details": "See {IERC721-getApproved}."
      },
      "isApprovedForAll(address,address)": {
        "details": "See {IERC721-isApprovedForAll}."
      },
      "name()": {
        "details": "See {IERC721Metadata-name}."
      },
      "owner()": {
        "details": "Returns the address of the current owner."
      },
      "ownerOf(uint256)": {
        "details": "See {IERC721-ownerOf}."
      },
      "paused()": {
        "details": "Returns true if the contract is paused, and false otherwise."
      },
      "renounceOwnership()": {
        "details": "Leaves the contract without owner. It will not be possible to call `onlyOwner` functions anymore. Can only be called by the current owner. NOTE: Renouncing ownership will leave the contract without an owner, thereby removing any functionality that is only available to the owner."
      },
      "safeTransferFrom(address,address,uint256)": {
        "details": "See {IERC721-safeTransferFrom}."
      },
      "safeTransferFrom(address,address,uint256,bytes)": {
        "details": "See {IERC721-safeTransferFrom}."
      },
      "setApprovalForAll(address,bool)": {
        "details": "See {IERC721-setApprovalForAll}."
      },
      "symbol()": {
        "details": "See {IERC721Metadata-symbol}."
      },
      "tokenByIndex(uint256)": {
        "details": "See {IERC721Enumerable-tokenByIndex}."
      },
      "tokenOfOwnerByIndex(address,uint256)": {
        "details": "See {IERC721Enumerable-tokenOfOwnerByIndex}."
      },
      "totalSupply()": {
        "details": "See {IERC721Enumerable-totalSupply}."
      },
      "transferFrom(address,address,uint256)": {
        "details": "See {IERC721-transferFrom}."
      },
      "transferOwnership(address)": {
        "details": "Transfers ownership of the contract to a new account (`newOwner`). Can only be called by the current owner."
      }
    },
    "version": 1
  },
  "userdoc": {
    "kind": "user",
    "methods": {},
    "version": 1
  }
}