{
  "contractName": "Buy",
  "abi": [
    {
      "inputs": [],
      "stateMutability": "nonpayable",
      "type": "constructor"
    },
    {
      "inputs": [
        {
          "internalType": "uint256",
          "name": "",
          "type": "uint256"
        }
      ],
      "name": "_baseNumber",
      "outputs": [
        {
          "internalType": "uint256",
          "name": "",
          "type": "uint256"
        }
      ],
      "stateMutability": "view",
      "type": "function",
      "constant": true
    },
    {
      "inputs": [
        {
          "internalType": "uint256",
          "name": "",
          "type": "uint256"
        }
      ],
      "name": "_goodStatus",
      "outputs": [
        {
          "internalType": "enum Buy.GoodStatus",
          "name": "",
          "type": "uint8"
        }
      ],
      "stateMutability": "view",
      "type": "function",
      "constant": true
    },
    {
      "inputs": [
        {
          "internalType": "uint256",
          "name": "id",
          "type": "uint256"
        }
      ],
      "name": "getStatus",
      "outputs": [
        {
          "internalType": "enum Buy.GoodStatus",
          "name": "",
          "type": "uint8"
        }
      ],
      "stateMutability": "view",
      "type": "function",
      "constant": true
    },
    {
      "inputs": [
        {
          "internalType": "uint256",
          "name": "id",
          "type": "uint256"
        },
        {
          "internalType": "enum Buy.GoodStatus",
          "name": "state",
          "type": "uint8"
        }
      ],
      "name": "setGoodStatus",
      "outputs": [
        {
          "internalType": "bool",
          "name": "",
          "type": "bool"
        }
      ],
      "stateMutability": "nonpayable",
      "type": "function"
    },
    {
      "inputs": [
        {
          "internalType": "uint256",
          "name": "id",
          "type": "uint256"
        }
      ],
      "name": "getNumberByGoodID",
      "outputs": [
        {
          "internalType": "uint256",
          "name": "",
          "type": "uint256"
        }
      ],
      "stateMutability": "view",
      "type": "function",
      "constant": true
    },
    {
      "inputs": [
        {
          "internalType": "uint256",
          "name": "random",
          "type": "uint256"
        },
        {
          "internalType": "uint256",
          "name": "id",
          "type": "uint256"
        },
        {
          "internalType": "uint256",
          "name": "tokenId",
          "type": "uint256"
        },
        {
          "internalType": "address",
          "name": "contractAddr",
          "type": "address"
        }
      ],
      "name": "openLotty",
      "outputs": [
        {
          "internalType": "uint256",
          "name": "",
          "type": "uint256"
        },
        {
          "internalType": "address",
          "name": "",
          "type": "address"
        }
      ],
      "stateMutability": "nonpayable",
      "type": "function"
    },
    {
      "inputs": [
        {
          "internalType": "uint256",
          "name": "id",
          "type": "uint256"
        }
      ],
      "name": "buy",
      "outputs": [
        {
          "internalType": "bool",
          "name": "",
          "type": "bool"
        }
      ],
      "stateMutability": "payable",
      "type": "function",
      "payable": true
    },
    {
      "inputs": [],
      "name": "rollBack",
      "outputs": [],
      "stateMutability": "nonpayable",
      "type": "function"
    },
    {
      "inputs": [
        {
          "internalType": "address",
          "name": "user",
          "type": "address"
        },
        {
          "internalType": "uint256",
          "name": "id",
          "type": "uint256"
        }
      ],
      "name": "isInOrder",
      "outputs": [
        {
          "internalType": "bool",
          "name": "",
          "type": "bool"
        }
      ],
      "stateMutability": "view",
      "type": "function",
      "constant": true
    },
    {
      "inputs": [
        {
          "internalType": "address",
          "name": "to",
          "type": "address"
        },
        {
          "internalType": "uint256",
          "name": "amount",
          "type": "uint256"
        }
      ],
      "name": "whitdraw",
      "outputs": [],
      "stateMutability": "nonpayable",
      "type": "function"
    },
    {
      "inputs": [
        {
          "internalType": "address",
          "name": "user",
          "type": "address"
        }
      ],
      "name": "add2WhiteList",
      "outputs": [
        {
          "internalType": "bool",
          "name": "",
          "type": "bool"
        }
      ],
      "stateMutability": "nonpayable",
      "type": "function"
    },
    {
      "inputs": [
        {
          "internalType": "uint256",
          "name": "per",
          "type": "uint256"
        }
      ],
      "name": "setPer",
      "outputs": [],
      "stateMutability": "nonpayable",
      "type": "function"
    },
    {
      "inputs": [],
      "name": "getOrder",
      "outputs": [
        {
          "components": [
            {
              "internalType": "address",
              "name": "user",
              "type": "address"
            },
            {
              "internalType": "uint256",
              "name": "id",
              "type": "uint256"
            },
            {
              "internalType": "uint256",
              "name": "amount",
              "type": "uint256"
            },
            {
              "internalType": "uint256",
              "name": "min",
              "type": "uint256"
            },
            {
              "internalType": "uint256",
              "name": "max",
              "type": "uint256"
            }
          ],
          "internalType": "struct Buy.OrderItem[]",
          "name": "",
          "type": "tuple[]"
        }
      ],
      "stateMutability": "view",
      "type": "function",
      "constant": true
    },
    {
      "inputs": [
        {
          "internalType": "uint256",
          "name": "id",
          "type": "uint256"
        }
      ],
      "name": "getOrderByGoodID",
      "outputs": [
        {
          "components": [
            {
              "internalType": "address",
              "name": "user",
              "type": "address"
            },
            {
              "internalType": "uint256",
              "name": "id",
              "type": "uint256"
            },
            {
              "internalType": "uint256",
              "name": "amount",
              "type": "uint256"
            },
            {
              "internalType": "uint256",
              "name": "min",
              "type": "uint256"
            },
            {
              "internalType": "uint256",
              "name": "max",
              "type": "uint256"
            }
          ],
          "internalType": "struct Buy.OrderItem[]",
          "name": "",
          "type": "tuple[]"
        }
      ],
      "stateMutability": "view",
      "type": "function",
      "constant": true
    },
    {
      "inputs": [
        {
          "internalType": "uint256",
          "name": "id",
          "type": "uint256"
        }
      ],
      "name": "getAmountByGoodID",
      "outputs": [
        {
          "internalType": "uint256",
          "name": "",
          "type": "uint256"
        }
      ],
      "stateMutability": "view",
      "type": "function",
      "constant": true
    },
    {
      "inputs": [
        {
          "internalType": "uint256",
          "name": "maxId",
          "type": "uint256"
        }
      ],
      "name": "calProfit",
      "outputs": [
        {
          "internalType": "uint256",
          "name": "",
          "type": "uint256"
        }
      ],
      "stateMutability": "view",
      "type": "function",
      "constant": true
    },
    {
      "inputs": [
        {
          "internalType": "address",
          "name": "user",
          "type": "address"
        },
        {
          "internalType": "uint256",
          "name": "id",
          "type": "uint256"
        }
      ],
      "name": "getAmount",
      "outputs": [
        {
          "internalType": "uint256",
          "name": "",
          "type": "uint256"
        }
      ],
      "stateMutability": "view",
      "type": "function",
      "constant": true
    },
    {
      "inputs": [],
      "name": "getPer",
      "outputs": [
        {
          "internalType": "uint256",
          "name": "",
          "type": "uint256"
        }
      ],
      "stateMutability": "view",
      "type": "function",
      "constant": true
    },
    {
      "inputs": [],
      "name": "getWhiteList",
      "outputs": [
        {
          "internalType": "address[]",
          "name": "",
          "type": "address[]"
        }
      ],
      "stateMutability": "view",
      "type": "function",
      "constant": true
    },
    {
      "inputs": [],
      "name": "getGoodsCount",
      "outputs": [
        {
          "internalType": "uint256",
          "name": "",
          "type": "uint256"
        }
      ],
      "stateMutability": "view",
      "type": "function",
      "constant": true
    }
  ],
  "bytecode": "0x608060405234801561001057600080fd5b5066038d7ea4c68000600981905550336000806101000a81548173ffffffffffffffffffffffffffffffffffffffff021916908373ffffffffffffffffffffffffffffffffffffffff16021790555060018060008060009054906101000a900473ffffffffffffffffffffffffffffffffffffffff1673ffffffffffffffffffffffffffffffffffffffff1673ffffffffffffffffffffffffffffffffffffffff16815260200190815260200160002060006101000a81548160ff0219169083151502179055506002339080600181540180825580915050600190039060005260206000200160009091909190916101000a81548173ffffffffffffffffffffffffffffffffffffffff021916908373ffffffffffffffffffffffffffffffffffffffff160217905550611f8b806101496000396000f3fe60806040526004361061011f5760003560e01c806394728249116100a0578063d36dedd211610064578063d36dedd21461045a578063d96a094a14610485578063e080b040146104b5578063e0b999a1146104cc578063f0b0a67f146105095761011f565b8063947282491461033a5780639865b2b814610377578063a715b213146103b4578063bc925191146103f2578063c1f31d0d1461042f5761011f565b80634d60b023116100e75780634d60b0231461022f5780635c622a0e14610258578063608ea12d146102955780638731d03b146102c05780638e6a5508146102fd5761011f565b806309a9d76c146101245780631568f6a51461014f578063161c15d01461018c5780631ce19eaa146101b557806336f94dc1146101f2575b600080fd5b34801561013057600080fd5b50610139610546565b60405161014691906118a1565b60405180910390f35b34801561015b57600080fd5b50610176600480360381019061017191906118fe565b6105d4565b60405161018391906119a2565b60405180910390f35b34801561019857600080fd5b506101b360048036038101906101ae91906118fe565b6105f4565b005b3480156101c157600080fd5b506101dc60048036038101906101d791906118fe565b610608565b6040516101e991906119cc565b60405180910390f35b3480156101fe57600080fd5b50610219600480360381019061021491906118fe565b610620565b60405161022691906119cc565b60405180910390f35b34801561023b57600080fd5b5061025660048036038101906102519190611a13565b61073b565b005b34801561026457600080fd5b5061027f600480360381019061027a91906118fe565b6107ec565b60405161028c91906119a2565b60405180910390f35b3480156102a157600080fd5b506102aa610816565b6040516102b791906119cc565b60405180910390f35b3480156102cc57600080fd5b506102e760048036038101906102e29190611a13565b610820565b6040516102f49190611a6e565b60405180910390f35b34801561030957600080fd5b50610324600480360381019061031f9190611aae565b610905565b6040516103319190611a6e565b60405180910390f35b34801561034657600080fd5b50610361600480360381019061035c9190611aee565b610a3e565b60405161036e9190611a6e565b60405180910390f35b34801561038357600080fd5b5061039e600480360381019061039991906118fe565b610bb8565b6040516103ab91906119cc565b60405180910390f35b3480156103c057600080fd5b506103db60048036038101906103d69190611b1b565b610c4a565b6040516103e9929190611b91565b60405180910390f35b3480156103fe57600080fd5b50610419600480360381019061041491906118fe565b610f9d565b60405161042691906119cc565b60405180910390f35b34801561043b57600080fd5b50610444610fba565b60405161045191906119cc565b60405180910390f35b34801561046657600080fd5b5061046f610fc4565b60405161047c9190611ce0565b60405180910390f35b61049f600480360381019061049a91906118fe565b6110de565b6040516104ac9190611a6e565b60405180910390f35b3480156104c157600080fd5b506104ca6113a2565b005b3480156104d857600080fd5b506104f360048036038101906104ee9190611a13565b611526565b60405161050091906119cc565b60405180910390f35b34801561051557600080fd5b50610530600480360381019061052b91906118fe565b61167c565b60405161053d9190611ce0565b60405180910390f35b606060028054806020026020016040519081016040528092919081815260200182805480156105ca57602002820191906000526020600020905b8160009054906101000a900473ffffffffffffffffffffffffffffffffffffffff1673ffffffffffffffffffffffffffffffffffffffff1681526020019060010190808311610580575b5050505050905090565b60046020528060005260406000206000915054906101000a900460ff1681565b600081111561060557806009819055505b50565b60056020528060005260406000206000915090505481565b60008060005b6001846106339190611d31565b81108015610642575060035481105b15610724576004600082815260200190815260200160002060009054906101000a900460ff16600381111561067a5761067961192b565b5b60038081111561068d5761068c61192b565b5b1461069757610711565b60005b600660008381526020019081526020016000208054905081101561070f576006600083815260200190815260200160002081815481106106dd576106dc611d87565b5b906000526020600020906005020160020154836106fa9190611d31565b9250808061070790611db6565b91505061069a565b505b808061071c90611db6565b915050610626565b50600954816107339190611dff565b915050919050565b60008054906101000a900473ffffffffffffffffffffffffffffffffffffffff1673ffffffffffffffffffffffffffffffffffffffff163373ffffffffffffffffffffffffffffffffffffffff161461079357600080fd5b478111156107a0576107e8565b8173ffffffffffffffffffffffffffffffffffffffff166108fc829081150290604051600060405180830381858888f193505050501580156107e6573d6000803e3d6000fd5b505b5050565b60006004600083815260200190815260200160002060009054906101000a900460ff169050919050565b6000600954905090565b600080600090505b600760008573ffffffffffffffffffffffffffffffffffffffff1673ffffffffffffffffffffffffffffffffffffffff168152602001908152602001600020805490508110156108f957600760008573ffffffffffffffffffffffffffffffffffffffff1673ffffffffffffffffffffffffffffffffffffffff16815260200190815260200160002081815481106108c3576108c2611d87565b5b9060005260206000209060050201600101548314156108e65760019150506108ff565b80806108f190611db6565b915050610828565b50600090505b92915050565b6000600160003373ffffffffffffffffffffffffffffffffffffffff1673ffffffffffffffffffffffffffffffffffffffff16815260200190815260200160002060009054906101000a900460ff1661095d57600080fd5b6003808111156109705761096f61192b565b5b6004600085815260200190815260200160002060009054906101000a900460ff1660038111156109a3576109a261192b565b5b14156109b25760009050610a38565b8160038111156109c5576109c461192b565b5b600160038111156109d9576109d861192b565b5b14156109f857600360008154809291906109f290611db6565b91905055505b816004600085815260200190815260200160002060006101000a81548160ff02191690836003811115610a2e57610a2d61192b565b5b0217905550600190505b92915050565b60008060009054906101000a900473ffffffffffffffffffffffffffffffffffffffff1673ffffffffffffffffffffffffffffffffffffffff163373ffffffffffffffffffffffffffffffffffffffff1614610a9957600080fd5b600160008373ffffffffffffffffffffffffffffffffffffffff1673ffffffffffffffffffffffffffffffffffffffff16815260200190815260200160002060009054906101000a900460ff1615610af45760009050610bb3565b60018060008473ffffffffffffffffffffffffffffffffffffffff1673ffffffffffffffffffffffffffffffffffffffff16815260200190815260200160002060006101000a81548160ff0219169083151502179055506002829080600181540180825580915050600190039060005260206000200160009091909190916101000a81548173ffffffffffffffffffffffffffffffffffffffff021916908373ffffffffffffffffffffffffffffffffffffffff160217905550600190505b919050565b60008060005b6006600085815260200190815260200160002080549050811015610c3357600660008581526020019081526020016000208181548110610c0157610c00611d87565b5b90600052602060002090600502016002015482610c1e9190611d31565b91508080610c2b90611db6565b915050610bbe565b5060095481610c429190611dff565b915050919050565b600080600160003373ffffffffffffffffffffffffffffffffffffffff1673ffffffffffffffffffffffffffffffffffffffff16815260200190815260200160002060009054906101000a900460ff16610ca357600080fd5b6004600086815260200190815260200160002060009054906101000a900460ff166003811115610cd657610cd561192b565b5b60016003811115610cea57610ce961192b565b5b14158015610d0b575060006005600087815260200190815260200160002054115b15610d1c5760008091509150610f94565b60036004600087815260200190815260200160002060006101000a81548160ff02191690836003811115610d5357610d5261192b565b5b02179055506000600160056000888152602001908152602001600020544389610d7c9190611d31565b610d869190611e88565b610d909190611d31565b905060008060066000898152602001908152602001600020805480602002602001604051908101604052809291908181526020016000905b82821015610e7857838290600052602060002090600502016040518060a00160405290816000820160009054906101000a900473ffffffffffffffffffffffffffffffffffffffff1673ffffffffffffffffffffffffffffffffffffffff1673ffffffffffffffffffffffffffffffffffffffff16815260200160018201548152602001600282015481526020016003820154815260200160048201548152505081526020019060010190610dc8565b50505050905060008151905060005b81811015610f8857828181518110610ea257610ea1611d87565b5b6020026020010151606001518510158015610edb5750828181518110610ecb57610eca611d87565b5b6020026020010151608001518511155b15610f7557828181518110610ef357610ef2611d87565b5b60200260200101516000015193508773ffffffffffffffffffffffffffffffffffffffff166342842e0e33868c6040518463ffffffff1660e01b8152600401610f3e93929190611eb9565b600060405180830381600087803b158015610f5857600080fd5b505af1158015610f6c573d6000803e3d6000fd5b50505050610f88565b8080610f8090611db6565b915050610e87565b50838395509550505050505b94509492505050565b600060056000838152602001908152602001600020549050919050565b6000600354905090565b6060600760003373ffffffffffffffffffffffffffffffffffffffff1673ffffffffffffffffffffffffffffffffffffffff168152602001908152602001600020805480602002602001604051908101604052809291908181526020016000905b828210156110d557838290600052602060002090600502016040518060a00160405290816000820160009054906101000a900473ffffffffffffffffffffffffffffffffffffffff1673ffffffffffffffffffffffffffffffffffffffff1673ffffffffffffffffffffffffffffffffffffffff16815260200160018201548152602001600282015481526020016003820154815260200160048201548152505081526020019060010190611025565b50505050905090565b60006004600083815260200190815260200160002060009054906101000a900460ff1660038111156111135761111261192b565b5b600160038111156111275761112661192b565b5b14801561113657506009543410155b61113f57600080fd5b60006009543461114f9190611ef0565b905061115961176c565b818160400181815250508381602001818152505033816000019073ffffffffffffffffffffffffffffffffffffffff16908173ffffffffffffffffffffffffffffffffffffffff1681525050600160056000868152602001908152602001600020546111c59190611d31565b81606001818152505060018282606001516111e09190611d31565b6111ea9190611f21565b81608001818152505080608001516005600086815260200190815260200160002081905550600760003373ffffffffffffffffffffffffffffffffffffffff1673ffffffffffffffffffffffffffffffffffffffff16815260200190815260200160002081908060018154018082558091505060019003906000526020600020906005020160009091909190915060008201518160000160006101000a81548173ffffffffffffffffffffffffffffffffffffffff021916908373ffffffffffffffffffffffffffffffffffffffff1602179055506020820151816001015560408201518160020155606082015181600301556080820151816004015550506006600085815260200190815260200160002081908060018154018082558091505060019003906000526020600020906005020160009091909190915060008201518160000160006101000a81548173ffffffffffffffffffffffffffffffffffffffff021916908373ffffffffffffffffffffffffffffffffffffffff160217905550602082015181600101556040820151816002015560608201518160030155608082015181600401555050600192505050919050565b600080600860003373ffffffffffffffffffffffffffffffffffffffff1673ffffffffffffffffffffffffffffffffffffffff16815260200190815260200160002054905060005b8181101580156113fb575060035481105b1561148a576004600082815260200190815260200160002060009054906101000a900460ff1660038111156114335761143261192b565b5b600260038111156114475761144661192b565b5b14801561145a57506114593382610820565b5b15611477576114693382611526565b836114749190611d31565b92505b808061148290611db6565b9150506113ea565b50600082111561152257600354600860003373ffffffffffffffffffffffffffffffffffffffff1673ffffffffffffffffffffffffffffffffffffffff168152602001908152602001600020819055503373ffffffffffffffffffffffffffffffffffffffff166108fc839081150290604051600060405180830381858888f19350505050158015611520573d6000803e3d6000fd5b505b5050565b60008060005b600760008673ffffffffffffffffffffffffffffffffffffffff1673ffffffffffffffffffffffffffffffffffffffff1681526020019081526020016000208054905081101561166457600760008673ffffffffffffffffffffffffffffffffffffffff1673ffffffffffffffffffffffffffffffffffffffff16815260200190815260200160002081815481106115c7576115c6611d87565b5b90600052602060002090600502016001015484141561165157600760008673ffffffffffffffffffffffffffffffffffffffff1673ffffffffffffffffffffffffffffffffffffffff168152602001908152602001600020818154811061163157611630611d87565b5b9060005260206000209060050201600201548261164e9190611d31565b91505b808061165c90611db6565b91505061152c565b50600954816116739190611dff565b91505092915050565b606060066000838152602001908152602001600020805480602002602001604051908101604052809291908181526020016000905b8282101561176157838290600052602060002090600502016040518060a00160405290816000820160009054906101000a900473ffffffffffffffffffffffffffffffffffffffff1673ffffffffffffffffffffffffffffffffffffffff1673ffffffffffffffffffffffffffffffffffffffff168152602001600182015481526020016002820154815260200160038201548152602001600482015481525050815260200190600101906116b1565b505050509050919050565b6040518060a00160405280600073ffffffffffffffffffffffffffffffffffffffff168152602001600081526020016000815260200160008152602001600081525090565b600081519050919050565b600082825260208201905092915050565b6000819050602082019050919050565b600073ffffffffffffffffffffffffffffffffffffffff82169050919050565b6000611808826117dd565b9050919050565b611818816117fd565b82525050565b600061182a838361180f565b60208301905092915050565b6000602082019050919050565b600061184e826117b1565b61185881856117bc565b9350611863836117cd565b8060005b8381101561189457815161187b888261181e565b975061188683611836565b925050600181019050611867565b5085935050505092915050565b600060208201905081810360008301526118bb8184611843565b905092915050565b600080fd5b6000819050919050565b6118db816118c8565b81146118e657600080fd5b50565b6000813590506118f8816118d2565b92915050565b600060208284031215611914576119136118c3565b5b6000611922848285016118e9565b91505092915050565b7f4e487b7100000000000000000000000000000000000000000000000000000000600052602160045260246000fd5b6004811061196b5761196a61192b565b5b50565b600081905061197c8261195a565b919050565b600061198c8261196e565b9050919050565b61199c81611981565b82525050565b60006020820190506119b76000830184611993565b92915050565b6119c6816118c8565b82525050565b60006020820190506119e160008301846119bd565b92915050565b6119f0816117fd565b81146119fb57600080fd5b50565b600081359050611a0d816119e7565b92915050565b60008060408385031215611a2a57611a296118c3565b5b6000611a38858286016119fe565b9250506020611a49858286016118e9565b9150509250929050565b60008115159050919050565b611a6881611a53565b82525050565b6000602082019050611a836000830184611a5f565b92915050565b60048110611a9657600080fd5b50565b600081359050611aa881611a89565b92915050565b60008060408385031215611ac557611ac46118c3565b5b6000611ad3858286016118e9565b9250506020611ae485828601611a99565b9150509250929050565b600060208284031215611b0457611b036118c3565b5b6000611b12848285016119fe565b91505092915050565b60008060008060808587031215611b3557611b346118c3565b5b6000611b43878288016118e9565b9450506020611b54878288016118e9565b9350506040611b65878288016118e9565b9250506060611b76878288016119fe565b91505092959194509250565b611b8b816117fd565b82525050565b6000604082019050611ba660008301856119bd565b611bb36020830184611b82565b9392505050565b600081519050919050565b600082825260208201905092915050565b6000819050602082019050919050565b611bef816118c8565b82525050565b60a082016000820151611c0b600085018261180f565b506020820151611c1e6020850182611be6565b506040820151611c316040850182611be6565b506060820151611c446060850182611be6565b506080820151611c576080850182611be6565b50505050565b6000611c698383611bf5565b60a08301905092915050565b6000602082019050919050565b6000611c8d82611bba565b611c978185611bc5565b9350611ca283611bd6565b8060005b83811015611cd3578151611cba8882611c5d565b9750611cc583611c75565b925050600181019050611ca6565b5085935050505092915050565b60006020820190508181036000830152611cfa8184611c82565b905092915050565b7f4e487b7100000000000000000000000000000000000000000000000000000000600052601160045260246000fd5b6000611d3c826118c8565b9150611d47836118c8565b9250827fffffffffffffffffffffffffffffffffffffffffffffffffffffffffffffffff03821115611d7c57611d7b611d02565b5b828201905092915050565b7f4e487b7100000000000000000000000000000000000000000000000000000000600052603260045260246000fd5b6000611dc1826118c8565b91507fffffffffffffffffffffffffffffffffffffffffffffffffffffffffffffffff821415611df457611df3611d02565b5b600182019050919050565b6000611e0a826118c8565b9150611e15836118c8565b9250817fffffffffffffffffffffffffffffffffffffffffffffffffffffffffffffffff0483118215151615611e4e57611e4d611d02565b5b828202905092915050565b7f4e487b7100000000000000000000000000000000000000000000000000000000600052601260045260246000fd5b6000611e93826118c8565b9150611e9e836118c8565b925082611eae57611ead611e59565b5b828206905092915050565b6000606082019050611ece6000830186611b82565b611edb6020830185611b82565b611ee860408301846119bd565b949350505050565b6000611efb826118c8565b9150611f06836118c8565b925082611f1657611f15611e59565b5b828204905092915050565b6000611f2c826118c8565b9150611f37836118c8565b925082821015611f4a57611f49611d02565b5b82820390509291505056fea264697066735822122063b516a5a0d385703cfeacb06477c5f4ce4fe70f7717099ad697ad8bb3cff10664736f6c634300080a0033",
  "immutableReferences": {},
  "source": "// SPDX-License-Identifier: MIT\npragma solidity ^0.8.10;\n\nimport \"@openzeppelin/contracts-upgradeable/token/ERC721/ERC721Upgradeable.sol\";\n\ncontract Buy {\n    // \n    enum GoodStatus {\n        UnKown,     // ; \n        OnSale,     // ; \n        Canceled,   // 1: (); \n        HasOpened   // 2: ; \n    }\n\n    // \n    struct OrderItem {\n        address user;   // \n        uint256 id;     // ID\n        uint256 amount; // /_min, _min\n        uint256 min;    // \n        uint256 max;    //  max = base + (min + amount - 1)\n    }\n\n    address _owner;\n\n    // \n    mapping (address => bool) _isWhite;\n    address[] _whiteAddrList; \n\n    // \n    uint256 _goodCount; // \n    mapping (uint256 => GoodStatus) public _goodStatus;\n\n    // id=>\n    mapping (uint256 => uint256) public _baseNumber; // 1\n\n    // \n    mapping (uint256 => OrderItem[]) private _orderByGoodID;\n\n    // \n    mapping (address => OrderItem[]) private _orderByUser;\n\n    // \n    mapping (address => uint256) _userRollback;\n\n    //  \n    uint256 _per; // wei\n\n    constructor () {\n        _per = 1 * (10**15); // 0.001ETH, wei\n        _owner = msg.sender;\n        _isWhite[_owner] = true;\n        _whiteAddrList.push(msg.sender);\n    }\n\n    modifier onlyOwner() {\n        require(msg.sender == _owner);\n        _;\n    }\n\n    /*\n    1 \n    */\n    // \n    function getStatus(uint256 id) public view returns (GoodStatus) {\n        return _goodStatus[id];\n    }\n\n    // / \n    function setGoodStatus(uint256 id, GoodStatus state) public returns (bool) {\n        require(_isWhite[msg.sender]);\n        if (_goodStatus[id] == GoodStatus.HasOpened)\n            return false;\n        \n        if (GoodStatus.OnSale == state) // \n            _goodCount ++;\n        \n        _goodStatus[id] = state;\n\n        return true;\n    }\n\n    // \n    function getNumberByGoodID(uint256 id) public view returns (uint256) {\n        return _baseNumber[id];\n    }\n\n    // ; TODO \n    function openLotty(uint256 random, uint256 id, uint256 tokenId, address contractAddr) public returns (uint256, address) {\n        require(_isWhite[msg.sender]);\n        if (GoodStatus.OnSale != _goodStatus[id] && _baseNumber[id] > 0) // \n            return (0, address(0x00));\n        _goodStatus[id] = GoodStatus.HasOpened;\n\n        uint256 luckyNO = ((random + block.number) % _baseNumber[id]) + 1;\n        address lucyUser = address(0x00);\n\n        OrderItem[] memory tmpOrder = _orderByGoodID[id];\n        uint256 orderCount = tmpOrder.length;\n        \n        // find lucky user\n        for (uint256 i = 0; i < orderCount; i++) {\n            if (luckyNO >= tmpOrder[i].min && luckyNO <= tmpOrder[i].max) {\n                lucyUser = tmpOrder[i].user;\n                \n                // transfer NFT\n                ERC721Upgradeable(contractAddr).safeTransferFrom(msg.sender, lucyUser, tokenId);\n                break;\n            }\n        }\n\n        return (luckyNO, lucyUser);\n    }\n\n    // \n    function buy(uint256 id) public payable returns (bool) {\n        require(GoodStatus.OnSale == _goodStatus[id] && msg.value >= _per); // TODO \n\n        uint256 amount = msg.value / _per; // \n        OrderItem memory order;\n        order.amount = amount;\n        order.id     = id;\n        order.user   = msg.sender;\n        order.min    = _baseNumber[id] + 1;\n        order.max    = order.min + amount - 1;\n        _baseNumber[id]  = order.max;\n        \n        _orderByUser[msg.sender].push(order);\n        _orderByGoodID[id].push(order);\n\n        return true;\n    }\n\n    // \n    function rollBack() public {\n        uint256 money;\n        uint256 rollbackPoint = _userRollback[msg.sender];\n\n        for (uint256 i = 0; i >= rollbackPoint && i < _goodCount; i++) {\n            if (GoodStatus.Canceled == _goodStatus[i] && isInOrder(msg.sender, i)) { // \n                money += getAmount(msg.sender, i);\n            }\n        }\n\n        if (money > 0) {\n            _userRollback[msg.sender] = _goodCount;\n            payable(msg.sender).transfer(money);\n        }\n        \n    }\n\n    // \n    function isInOrder(address user, uint256 id) public view returns (bool) {\n        for (uint256 i = 0; i < _orderByUser[user].length; i ++)\n            if (id == _orderByUser[user][i].id)\n                return true;\n\n        return false;\n    }\n\n    /*\n    2 \n    */\n    // \n    function whitdraw(address to, uint256 amount) public onlyOwner {\n        if (amount > address(this).balance)\n            return;\n        payable(to).transfer(amount); //  wei\n    }\n\n    // \n    function add2WhiteList(address user) public onlyOwner returns (bool){\n        if (_isWhite[user])\n            return false;\n        _isWhite[user] = true;\n        _whiteAddrList.push(user);\n        return true;\n    }\n\n    // \n    function setPer(uint256 per) public {\n        if (per >0 )\n            _per = per;\n    }\n\n    /*\n    3 \n     */\n    // \n    function getOrder() public view returns (OrderItem[] memory) {\n        return _orderByUser[msg.sender];\n    }\n\n    // \n    function getOrderByGoodID(uint256 id) public view returns (OrderItem[] memory){\n        return _orderByGoodID[id];\n    }\n\n    // \n    function getAmountByGoodID(uint256 id) public view returns (uint256){\n        uint256 amount;\n        for (uint256 i = 0; i < _orderByGoodID[id].length; i ++)\n            amount += _orderByGoodID[id][i].amount;\n        return amount * _per;\n    }\n\n    // ()\n    function calProfit(uint256 maxId) public view returns (uint256) {\n        uint256 amount;\n        for (uint256 i = 0; i < maxId + 1 && i < _goodCount; i++) {\n            if (GoodStatus.HasOpened != _goodStatus[i])\n                continue;\n            for (uint256 k = 0; k < _orderByGoodID[i].length; k++) {\n                amount += _orderByGoodID[i][k].amount;\n            }\n        }\n\n        return amount * _per;\n    }\n\n    // \n    function getAmount(address user, uint256 id) public view returns (uint256) {\n        uint256 amount;\n        for (uint256 i = 0; i < _orderByUser[user].length; i ++)\n            if (id == _orderByUser[user][i].id)\n                amount += _orderByUser[user][i].amount;\n\n        return amount * _per;\n    }\n\n    // \n    function getPer() public view returns (uint256) {\n        return _per;\n    }\n\n    // \n    function getWhiteList() public view returns (address[] memory) {\n        return _whiteAddrList;\n    }\n\n    // , [0, (_goodCount -1)]key(ID)\n    function getGoodsCount() public view returns (uint256) {\n        return _goodCount;\n    }\n\n}",
  "sourcePath": "/Users/cqz/Desktop/yiyuangou/contracts/Buy.sol",
  "compiler": {
    "name": "solc",
    "version": "0.8.10+commit.fc410830.Emscripten.clang"
  },
  "schemaVersion": "3.4.13",
  "updatedAt": "2023-03-10T13:06:52.220Z",
  "networkType": "ethereum",
  "devdoc": {
    "kind": "dev",
    "methods": {},
    "version": 1
  },
  "userdoc": {
    "kind": "user",
    "methods": {},
    "version": 1
  }
}